{
  "_format": "hh-sol-artifact-1",
  "contractName": "BuyMeACoffee",
  "sourceName": "contracts/BuyMeACoffee.sol",
  "abi": [
    {
      "inputs": [],
      "stateMutability": "nonpayable",
      "type": "constructor"
    },
    {
      "anonymous": false,
      "inputs": [
        {
          "indexed": false,
          "internalType": "address",
          "name": "from",
          "type": "address"
        },
        {
          "indexed": false,
          "internalType": "uint256",
          "name": "timestamp",
          "type": "uint256"
        },
        {
          "indexed": false,
          "internalType": "string",
          "name": "name",
          "type": "string"
        },
        {
          "indexed": false,
          "internalType": "string",
          "name": "message",
          "type": "string"
        }
      ],
      "name": "newMemo",
      "type": "event"
    },
    {
      "inputs": [
        {
          "internalType": "string",
          "name": "_name",
          "type": "string"
        },
        {
          "internalType": "string",
          "name": "_message",
          "type": "string"
        }
      ],
      "name": "buyCoffee",
      "outputs": [],
      "stateMutability": "payable",
      "type": "function"
    },
    {
      "inputs": [],
      "name": "getMemo",
      "outputs": [
        {
          "components": [
            {
              "internalType": "address",
              "name": "from",
              "type": "address"
            },
            {
              "internalType": "uint256",
              "name": "timestamp",
              "type": "uint256"
            },
            {
              "internalType": "string",
              "name": "name",
              "type": "string"
            },
            {
              "internalType": "string",
              "name": "message",
              "type": "string"
            }
          ],
          "internalType": "struct BuyMeACoffee.Memo[]",
          "name": "",
          "type": "tuple[]"
        }
      ],
      "stateMutability": "view",
      "type": "function"
    },
    {
      "inputs": [],
      "name": "withdrawTips",
      "outputs": [],
      "stateMutability": "nonpayable",
      "type": "function"
    }
  ],
  "bytecode": "0x608060405234801561001057600080fd5b50336000806101000a81548173ffffffffffffffffffffffffffffffffffffffff021916908373ffffffffffffffffffffffffffffffffffffffff1602179055506109c7806100606000396000f3fe6080604052600436106100345760003560e01c8063204206e1146100395780633aaa74b2146100555780638aa7b4b11461006c575b600080fd5b610053600480360381019061004e919061051b565b610097565b005b34801561006157600080fd5b5061006a6101cd565b005b34801561007857600080fd5b5061008161022d565b60405161008e91906106f4565b60405180910390f35b600034116100da576040517f08c379a00000000000000000000000000000000000000000000000000000000081526004016100d190610716565b60405180910390fd5b600160405180608001604052803373ffffffffffffffffffffffffffffffffffffffff16815260200142815260200184815260200183815250908060018154018082558091505060019003906000526020600020906004020160009091909190915060008201518160000160006101000a81548173ffffffffffffffffffffffffffffffffffffffff021916908373ffffffffffffffffffffffffffffffffffffffff1602179055506020820151816001015560408201518160020190805190602001906101a9929190610410565b5060608201518160030190805190602001906101c6929190610410565b5050505050565b60008054906101000a900473ffffffffffffffffffffffffffffffffffffffff1673ffffffffffffffffffffffffffffffffffffffff166108fc479081150290604051600060405180830381858888f1935050505061022b57600080fd5b565b60606001805480602002602001604051908101604052809291908181526020016000905b8282101561040757838290600052602060002090600402016040518060800160405290816000820160009054906101000a900473ffffffffffffffffffffffffffffffffffffffff1673ffffffffffffffffffffffffffffffffffffffff1673ffffffffffffffffffffffffffffffffffffffff168152602001600182015481526020016002820180546102e490610870565b80601f016020809104026020016040519081016040528092919081815260200182805461031090610870565b801561035d5780601f106103325761010080835404028352916020019161035d565b820191906000526020600020905b81548152906001019060200180831161034057829003601f168201915b5050505050815260200160038201805461037690610870565b80601f01602080910402602001604051908101604052809291908181526020018280546103a290610870565b80156103ef5780601f106103c4576101008083540402835291602001916103ef565b820191906000526020600020905b8154815290600101906020018083116103d257829003601f168201915b50505050508152505081526020019060010190610251565b50505050905090565b82805461041c90610870565b90600052602060002090601f01602090048101928261043e5760008555610485565b82601f1061045757805160ff1916838001178555610485565b82800160010185558215610485579182015b82811115610484578251825591602001919060010190610469565b5b5090506104929190610496565b5090565b5b808211156104af576000816000905550600101610497565b5090565b60006104c66104c18461075b565b610736565b9050828152602081018484840111156104de57600080fd5b6104e984828561082e565b509392505050565b600082601f83011261050257600080fd5b81356105128482602086016104b3565b91505092915050565b6000806040838503121561052e57600080fd5b600083013567ffffffffffffffff81111561054857600080fd5b610554858286016104f1565b925050602083013567ffffffffffffffff81111561057157600080fd5b61057d858286016104f1565b9150509250929050565b6000610593838361067b565b905092915050565b6105a4816107f2565b82525050565b60006105b58261079c565b6105bf81856107bf565b9350836020820285016105d18561078c565b8060005b8581101561060d57848403895281516105ee8582610587565b94506105f9836107b2565b925060208a019950506001810190506105d5565b50829750879550505050505092915050565b600061062a826107a7565b61063481856107d0565b935061064481856020860161083d565b61064d81610931565b840191505092915050565b60006106656021836107e1565b915061067082610942565b604082019050919050565b6000608083016000830151610693600086018261059b565b5060208301516106a660208601826106e5565b50604083015184820360408601526106be828261061f565b915050606083015184820360608601526106d8828261061f565b9150508091505092915050565b6106ee81610824565b82525050565b6000602082019050818103600083015261070e81846105aa565b905092915050565b6000602082019050818103600083015261072f81610658565b9050919050565b6000610740610751565b905061074c82826108a2565b919050565b6000604051905090565b600067ffffffffffffffff82111561077657610775610902565b5b61077f82610931565b9050602081019050919050565b6000819050602082019050919050565b600081519050919050565b600081519050919050565b6000602082019050919050565b600082825260208201905092915050565b600082825260208201905092915050565b600082825260208201905092915050565b60006107fd82610804565b9050919050565b600073ffffffffffffffffffffffffffffffffffffffff82169050919050565b6000819050919050565b82818337600083830152505050565b60005b8381101561085b578082015181840152602081019050610840565b8381111561086a576000848401525b50505050565b6000600282049050600182168061088857607f821691505b6020821081141561089c5761089b6108d3565b5b50919050565b6108ab82610931565b810181811067ffffffffffffffff821117156108ca576108c9610902565b5b80604052505050565b7f4e487b7100000000000000000000000000000000000000000000000000000000600052602260045260246000fd5b7f4e487b7100000000000000000000000000000000000000000000000000000000600052604160045260246000fd5b6000601f19601f8301169050919050565b7f536f7272792c2062757420636f66666565206973206e6f7420666f722066726560008201527f650000000000000000000000000000000000000000000000000000000000000060208201525056fea26469706673582212203502e4b7cc1cb253fbf72f8a31078de0ec875eee71196234d325eb8b32d11cba64736f6c63430008040033",
  "linkReferences": {},
  "deployedLinkReferences": {}
}